:020000040000FA
:100000000C945D000C9485000C9485000C94850084
:100010000C9485000C9485000C9485000C9485004C
:100020000C9485000C9485000C9485000C941B06A0
:100030000C9485000C9485000C9485000C9485002C
:100040000C94D1050C9485000C9485000C948500CB
:100050000C9485000C9485000C9485000C9485000C
:100060000C9485000C9485000000000024002700FB
:100070002A0000000000250028002B0004040404CE
:100080000404040402020202020203030303030342
:10009000010204081020408001020408102001021F
:1000A00004081020000000080002010000030407FB
:1000B0000000000000000000E80811241FBECFEF80
:1000C000D8E0DEBFCDBF11E0A0E0B1E0E8EFF7E19E
:1000D00002C005900D92A036B107D9F721E0A0E645
:1000E000B1E001C01D92AA3BB207E1F710E0CDE5F7
:1000F000D0E004C02197FE010E94F40BCC35D1075B
:10010000C9F70E94D7060C94FA0B0C940000AF922A
:10011000BF92CF92DF92EF92FF920F931F93CF93F4
:10012000DF936C017B018B01040F151FEB015E0156
:10013000AE18BF08C017D10759F06991D601ED91EB
:10014000FC910190F081E02DC6010995892B79F78A
:10015000C501DF91CF911F910F91FF90EF90DF903C
:10016000CF90BF90AF90089590E0FC01EC55FF4F09
:100170002491FC01E057FF4F3491FC01E458FF4FFC
:10018000E491EE23C9F0222339F0233001F1A8F4E1
:10019000213019F1223029F1F0E0EE0FFF1FEE5867
:1001A000FF4FA591B4918FB7F894EC91611126C0DF
:1001B00030953E233C938FBF08952730A9F0283017
:1001C000C9F0243049F7809180008F7D03C0809171
:1001D00080008F7780938000DFCF84B58F7784BDD8
:1001E000DBCF84B58F7DFBCF8091B0008F7780937C
:1001F000B000D2CF8091B0008F7DF9CF3E2BDACF07
:10020000CF93DF9390E0FC01E057FF4F2491845897
:100210009F4FFC0184918823D1F090E0880F991FB3
:10022000FC01E859FF4FA591B491FC01EE58FF4F36
:10023000C591D49161110EC09FB7F8948C91E22FB3
:10024000E0958E238C932881E223E8839FBFDF9182
:10025000CF9108958FB7F894EC91E22BEC938FBF78
:10026000F6CF8E50806480937C0080917A00806409
:1002700080937A0080917A0086FDFCCF809178008F
:100280009091790008953FB7F894809187019091FB
:100290008801A0918901B0918A0126B5A89B05C06B
:1002A0002F3F19F00196A11DB11D3FBFBA2FA92FF5
:1002B000982F8827BC01CD01620F711D811D911DF2
:1002C00042E0660F771F881F991F4A95D1F708955E
:1002D0008F929F92AF92BF92CF92DF92EF92FF9256
:1002E0006B017C010E9443014B015C01C114D104EC
:1002F000E104F104B9F00E944301681979098A09FF
:100300009B09683E73408105910580F321E0C21A84
:10031000D108E108F10888EE880E83E0981EA11C40
:10032000B11CE4CFFF90EF90DF90CF90BF90AF90E3
:100330009F908F900895089590E080E008958F92A7
:100340009F92AF92BF92CF92DF92EF92FF92FC0109
:10035000828158E5C52E52E0D52EC81AD10887FDF6
:10036000D394CC0CDD1CCC0CDD1C0D2C000CEE0849
:10037000FF08818178E8872E912C881A910887FDE3
:100380009394880C991C880C991C092C000CAA08C1
:10039000BB0880818F3FD1F190E0FC01EE0FFF1F81
:1003A000E80FF91FEE59FE4F8181928133E0880FEB
:1003B000991F3A95E1F7B0E0A0E044E0B595A79524
:1003C000979587954A95D1F702969C012F5F3F4FED
:1003D000032E000C440B550B281939094A095B09F7
:1003E000A4EBB0E00E946809A70196012819390919
:1003F0004A095B090E944909C901FF90EF90DF900B
:10040000CF90BF90AF909F908F90089590E080E044
:10041000DCCFCF92DF92EF92FF92CF93DF93EC018C
:10042000603282E07807CCF5653B710514F064EB2F
:1004300070E0898128E830E0281B310987FD339579
:10044000220F331F220F331F6901330FEE08FF08FD
:100450008A8128E532E0281B310987FD3395220F78
:10046000331F220F331F032E000C440B550B2C1986
:100470003D094E095F09DB0177FF02C0B0E0A0E053
:100480000E94730924EB30E040E050E00E944909EB
:10049000C20ED31EE41EF51EB601E881EC3070F5E5
:1004A000298188E890E0821B910927FD9395880FA8
:1004B000991F880F991F681779077CF02A8188E5B2
:1004C00092E0821B910927FD9395880F991F880F51
:1004D000991F681779070CF4CB010297880F991FB1
:1004E0004FB7F8942E2F30E0F901EE0FFF1FE20F07
:1004F000F31FEE59FE4F928381834FBFDF91CF915F
:10050000FF90EF90DF90CF9008951F93CF93DF93EC
:10051000EC01162F88818C3008F04EC061E0812FED
:100520000E9400018881282F30E0F901EE0FFF1FA3
:10053000E20FF31FEE59FE4F1F736081607C612B49
:10054000608319821A822CE0622F0E94E80B829F3E
:10055000B001112430E020E0AB01420F531FFA013B
:10056000EE0FFF1FE40FF51FEE59FE4F908196FD31
:1005700016C02F5F3F4F2C30310571F781110FC02E
:100580001092800082E0809381001092850010928A
:100590008400B19A80916F00826080936F00E8813F
:1005A0008E2F90E0FC01EE0FFF1FE80FF91FEE59B0
:1005B000FE4F8081806480838881DF91CF911F917D
:1005C00008958091990190919A01853B910534F0AD
:1005D00084EB90E090939A01809399016091990146
:1005E00070919A016F5F7F4F70939A0160939901A8
:1005F0008BE991E00C9409028091990190919A0104
:1006000097FF04C010929A0110929901609199018C
:1006100070919A016150710970939A0160939901E8
:100620008BE991E00C9409028091940190919501DD
:100630008A36910534F089E690E090939501809395
:10064000940160919401709195016F5F7F4F709359
:1006500095016093940186E991E00C9409028091E0
:1006600094019091950197FF04C01092950110920A
:10067000940160919401709195016150710970939A
:1006800095016093940186E991E00C940902FC01C4
:1006900001900020E9F73197AF01481B590BBC01CD
:1006A00082EA91E00C9487008F929F92AF92BF9262
:1006B0000F931F93CF93DF93CDB7DEB7A1970FB6FC
:1006C000F894DEBF0FBECDBF19A2423008F44AE055
:1006D0008E010F5D1F4F842E912CB12CA12CA501F2
:1006E00094010E947B09E62FB901CA01EA30F4F4B3
:1006F000E05DD801EE938D01232B242B252B79F778
:1007000090E080E0109719F0CD010E944703A19678
:100710000FB6F894DEBF0FBECDBFDF91CF911F9112
:100720000F91BF90AF909F908F900895E95CE1CFBB
:100730000C944703CF93DF93EC0160E08E810E941D
:10074000B40061E08E810E94B40060E08E810E945E
:10075000B4008BE891E00197F1F7DF91CF91089514
:10076000CF92DF92EF92FF920F931F93CF93DF937D
:100770006C017C0187E0E80EF11CD0E0C0E0062FA0
:1007800010E0B8010C2E02C0759567950A94E2F747
:100790006170F70181917F010E94B4002196C430FD
:1007A000D10579F7C601DF91CF911F910F91FF908D
:1007B000EF90DF90CF900C949A03CF92DF92EF925C
:1007C000FF920F931F93CF93DF93EC01F62E642FCC
:1007D0008C810E94B4008D818F3F19F060E00E94EF
:1007E000B4000F2D10E08F8584FF25C06E0187E0D7
:1007F000C80ED11CF12CE12CB8010E2C02C075954D
:1008000067950A94E2F76170F60181916F010E9489
:10081000B400FFEFEF1AFF0A88E0E816F10461F771
:10082000CE01DF91CF911F910F91FF90EF90DF905C
:10083000CF900C949A03B80184E0759567958A95DA
:10084000E1F7CE010E94B0036F2DCE01DF91CF9171
:100850001F910F91FF90EF90DF90CF900C94B00319
:1008600040E0682F82EA91E00C94DD0381E00E9471
:1008700030048BE39FE10197F1F70895CF93DF9365
:10088000823029F49091B10198609093B1018093E6
:10089000B5011092B60180E48093B70180E18093A6
:1008A000B80180E58093B90161E08091A6010E94C2
:1008B00000018091A7018F3F19F061E00E940001C3
:1008C00061E08091A8010E940001C2EAD1E09E018E
:1008D000225A31408091B10184FD0BC084E090E048
:1008E00021962817390744F461E08E810E940001A7
:1008F000EECF88E090E0F4CF8BE39DE00197F1F735
:1009000060E08091A6010E94B40060E08091A8019F
:100910000E94B4008091A7018F3F19F060E00E940F
:10092000B4008091B10184FD34C063E082EA91E0BB
:100930000E94B003CBE4D6E4CE010197F1F763E067
:1009400082EA91E00E94B0032197F1F763E082EA26
:1009500091E00E94B00383E592E00197F1F762E035
:1009600082EA91E00E94B0038091B10180620E940E
:10097000300484E08093B2018CE00E9430040E9435
:10098000360482E08093B30186E0DF91CF910C942E
:10099000300480620E9430048BE496E40197F1F702
:1009A0008091B10180620E94300483E592E001975A
:1009B000F1F78091B10180620E943004D5CF90910F
:1009C000B501891710F08FEF890FE82FF0E0EE5591
:1009D000FE4F848980680C94300441E00E94DD035E
:1009E00081E090E008954F925F926F927F928F9294
:1009F0009F92AF92BF92CF92DF92EF92FF920F93AE
:100A00001F93CF936B017C01742EAC019B010E945C
:100A1000E30B882399F08CE091E0CF911F910F9127
:100A2000FF90EF90DF90CF90BF90AF909F908F900E
:100A30007F906F905F904F900C9447034601570151
:100A4000E894B7F82FEF3FEF4FE75FE7C501B40138
:100A50000E94E30B81110DC02FEF3FEF4FE75FE7DF
:100A6000C501B4010E94190A18161CF480E191E036
:100A7000D4CF2FEF3FEF4FE75FE4C701B6010E94ED
:100A8000710B18161CF484E191E0C7CF2FEF3FEFF4
:100A90004FE75FECC701B6010E94190A87FDF3CF4B
:100AA00020E030E0A901C701B6010E94190A10E058
:100AB00000E087FF0CC041E06DE282EA91E00E9415
:100AC000DD03F7FAF094F7F8F09401E010E0C0E0ED
:100AD00060E070E080E09FE37C1641F020E030E0D1
:100AE00040E251E40E941E0ACF5FF6CFA7019601B3
:100AF0000E94AD094B015C010E94900A2B013C0150
:100B00004AE00E945403080F191FCC23C9F1C30106
:100B1000B2010E94BF0A9B01AC01C501B4010E9451
:100B2000AC094B015C0141E06EE282EA91E00E9477
:100B3000DD030F5F1F4FC15018F120E030E040E2AD
:100B400051E4C501B4010E94760B2B013C010E94C7
:100B5000900A4B01B12CA12C4AE0C501B4010E94BE
:100B60005403080F191FC501B4010E94BF0A9B015D
:100B7000AC01C301B2010E94AC094B015C01DBCFA7
:100B8000C801CF911F910F91FF90EF90DF90CF9010
:100B9000BF90AF909F908F907F906F905F904F909D
:100BA00008951F920F920FB60F9211242F933F9327
:100BB0008F939F93AF93BF9380918B0190918C0102
:100BC000A0918D01B0918E013091860123E0230F19
:100BD0002D3758F50196A11DB11D209386018093F4
:100BE0008B0190938C01A0938D01B0938E01809125
:100BF000870190918801A0918901B0918A010196A5
:100C0000A11DB11D8093870190938801A093890154
:100C1000B0938A01BF91AF919F918F913F912F9196
:100C20000F900FBE0F901F90189526E8230F029685
:100C3000A11DB11DD2CF1F920F920FB60F9211249A
:100C40002F933F934F935F936F937F938F939F93D4
:100C5000AF93BF93CF93DF93EF93FF9380916101A5
:100C6000C0916001D0E087FF24C0109285001092EF
:100C70008400809161018F5F8093610180916101A7
:100C8000082E000C990B8C179D0724F480916101AC
:100C90008C30C4F18091840090918500049680345A
:100CA0009C4908F47AC08091840090918500049654
:100CB00076C080916101082E000C990B8C179D075E
:100CC000C4F6E09161018E2FEE0F990BFC01EE0F3F
:100CD000FF1FE80FF91FEE59FE4F808186FFC9CF35
:100CE000E09161018E2FEE0F990BFC01EE0FFF1FBB
:100CF000E80FF91FEE59FE4F808160E08F730E946C
:100D0000B400B7CF2091840030918500E09161015B
:100D10008E2FEE0F990BFC01EE0FFF1FE80FF91F4E
:100D2000EE59FE4F81819281820F931F909389002B
:100D300080938800E09161018E2FEE0F990BFC01EA
:100D4000EE0FFF1FE80FF91FEE59FE4F808186FF5F
:100D500011C0E09161018E2FEE0F990BFC01EE0F97
:100D6000FF1FE80FF91FEE59FE4F808161E08F737E
:100D70000E94B400FF91EF91DF91CF91BF91AF91AD
:100D80009F918F917F916F915F914F913F912F91A3
:100D90000F900FBE0F901F90189580E49CE99093E0
:100DA0008900809388008FEF80936101E3CF78946E
:100DB00084B5826084BD84B5816084BD85B5826060
:100DC00085BD85B5816085BD80916E008160809311
:100DD0006E0010928100809181008260809381007A
:100DE000809181008160809381008091800081608A
:100DF000809380008091B10084608093B1008091E5
:100E0000B00081608093B00080917A00846080930C
:100E10007A0080917A00826080937A0080917A00D3
:100E2000816080937A0080917A00806880937A0054
:100E30001092C10082E00E943E0460E08FE00E94B8
:100E4000000160E080E10E94000160E081E10E9419
:100E5000000160E082E10E94000160E084E10E9404
:100E6000000160E08EE00E94000161E088E00E94E5
:100E700000016AE070E08BE991E00E9485026BE07E
:100E800070E086E991E00E9485026091990170917D
:100E90009A018BE991E00E9409026091940170919E
:100EA000950186E991E00E94090280E0A82E80E089
:100EB000B82E6EE170E080E090E00E9468018FB78C
:100EC000F89440908B0150908C0160908D0170904F
:100ED0008E018FBF40929E0150929F016092A001AF
:100EE0007092A1018FE00E9431016C0180E10E94AB
:100EF00031017C0181E10E9431018C0182E10E947B
:100F00003101EC018EE00E94310184E10E94310147
:100F10008BE991E00E949F0190939A01809399013F
:100F200086E991E00E949F0190939501809394013E
:100F300084E10E94310140919001509191016091B2
:100F4000920170919301441A550A660A770A883C07
:100F500091050CF06AC029EC421651046104710439
:100F600058F10E94360480E00E94DF0488E191E09D
:100F70000E94980381E00E94DF0486E291E00E94D3
:100F8000980342E064EA70E78DE991E40E94F3047B
:100F90008DE291E00E94980380919E0190919F01C3
:100FA000A091A001B091A101809390019093910133
:100FB000A0939201B093930181E080938F0180917F
:100FC0008F01882309F4D1C0C3E0D0E061E088E05C
:100FD0000E94B40064EF71E080E090E00E9468013C
:100FE00060E088E00E94B40064EF71E080E090E08F
:100FF0000E946801219751F76091940170919501C9
:10100000613571050CF469C06150710970939501E7
:101010006093940186E991E00E9409026AE070E021
:1010200080E090E00E946801E7CF8C3221E09207D7
:101030007CF489EC481651046104710408F4BCCFB7
:101040000E94360480E00E94DF048FE291E090CF9E
:1010500088359240A4F589EC481651046104710466
:1010600058F10E94360480E00E94DF0480E491E0A1
:101070000E94980381E00E94DF0486E291E00E94D2
:10108000980342E064EA70E78DE991E40E94F3047A
:101090008DE291E00E94980380919E0190919F01C2
:1010A000A091A001B091A101809390019093910132
:1010B000A0939201B093930110928F0180CF29ECFD
:1010C0004216510461047104B8F30E94360480E0B2
:1010D0000E94DF048EE491E0CBCF60919401709187
:1010E0009501603571058CF46F5F7F4F70939501AA
:1010F0006093940186E991E00E9409026AE070E041
:1011000080E090E00E946801E8CF609199017091C1
:101110009A01643771058CF06150710970939A01DE
:10112000609399018BE991E00E9409026AE070E006
:1011300080E090E00E946801E8CF60919901709191
:101140009A01633771052CF56F5F7F4F70939A0199
:10115000609399018BE991E00E9409026AE070E0D6
:1011600080E090E00E946801E8CF0C151D05C4F4F2
:101170000E942F03CE15DF05CCF40E942F03EC1440
:10118000FD04D4F40E94FC02C017D107DCF40E94D5
:10119000FC02A114B10409F48CCE0E94000089CE97
:1011A000C016D1063CF70E941403E4CFEC16FD06EE
:1011B00034F70E941403E3CFCE14DF042CF70E940F
:1011C000E102E2CF0C171D0724F70E94E102E1CFF4
:1011D000809160018C3008F054C091E0980F90939A
:1011E000600180939B0190E0FC01EE0FFF1FE80F70
:1011F000F91FEE59FE4F88EB9BE09283818380912B
:1012000060018C3008F041C091E0980F909360012C
:101210008093960190E0FC01EE0FFF1FE80FF91F8D
:10122000EE59FE4F88EB9BE0928381831092A501DB
:101230001092A40184E091E09093A3018093A20115
:101240001092A6018FEF8093A70182E08093A801FE
:1012500083E08093A90184E08093AA0185E08093D4
:10126000AB0186E08093AC011092AD011092AE010B
:101270001092AF011092B0011092B10181E00C9474
:101280003E048FEF80939B01BACF8FEF809396013E
:10129000CDCF052E97FB1EF400940E94600957FDE8
:1012A00007D00E947B0907FC03D04EF40C94600920
:1012B00050954095309521953F4F4F4F5F4F089582
:1012C00090958095709561957F4F8F4F9F4F0895B2
:1012D0000E949D09A59F900DB49F900DA49F800D25
:1012E000911D11240895B7FF0C9468090E946809A4
:1012F000821B930B0895A1E21A2EAA1BBB1BFD01B2
:101300000DC0AA1FBB1FEE1FFF1FA217B307E407E4
:10131000F50720F0A21BB30BE40BF50B661F771F3C
:10132000881F991F1A9469F760957095809590951C
:101330009B01AC01BD01CF010895A29FB001B39FF5
:10134000C001A39F700D811D1124911DB29F700DCE
:10135000811D1124911D08955058BB27AA270E9472
:10136000C4090C94370B0E94290B38F00E94300BF3
:1013700020F039F49F3F19F426F40C94260B0EF458
:10138000E095E7FB0C94200BE92F0E94480B58F3E3
:10139000BA17620773078407950720F079F4A6F55A
:1013A0000C946A0B0EF4E0950B2EBA2FA02D0B01B6
:1013B000B90190010C01CA01A0011124FF27591B9A
:1013C00099F0593F50F4503E68F11A16F040A22FA0
:1013D000232F342F4427585FF3CF46953795279511
:1013E000A795F0405395C9F77EF41F16BA0B620B10
:1013F000730B840BBAF09150A1F0FF0FBB1F661F57
:10140000771F881FC2F70EC0BA0F621F731F841F99
:1014100048F4879577956795B795F7959E3F08F0BF
:10142000B0CF9395880F08F09927EE0F9795879581
:1014300008950E94FC0A08F481E008950E94320A8F
:101440000C94370B0E94300B58F00E94290B40F08F
:1014500029F45F3F29F00C94200B51110C946B0B75
:101460000C94260B0E94480B68F39923B1F3552383
:1014700091F3951B550BBB27AA27621773078407A7
:1014800038F09F5F5F4F220F331F441FAA1FA9F33D
:1014900035D00E2E3AF0E0E832D091505040E6952B
:1014A000001CCAF72BD0FE2F29D0660F771F881F8C
:1014B000BB1F261737074807AB07B0E809F0BB0B7F
:1014C000802DBF01FF2793585F4F3AF09E3F510593
:1014D00078F00C94200B0C946B0B5F3FE4F3983E78
:1014E000D4F3869577956795B795F7959F5FC9F77C
:1014F000880F911D9695879597F90895E1E0660FFD
:10150000771F881FBB1F621773078407BA0720F075
:10151000621B730B840BBA0BEE1F88F7E0950895DE
:101520000E94500B88F09F5798F0B92F9927B75118
:10153000B0F0E1F0660F771F881F991F1AF0BA9577
:10154000C9F714C0B13091F00E946A0BB1E0089560
:101550000C946A0B672F782F8827B85F39F0B93F52
:10156000CCF3869577956795B395D9F73EF490952A
:101570008095709561957F4F8F4F9F4F0895E894A8
:1015800009C097FB3EF490958095709561957F4FCB
:101590008F4F9F4F9923A9F0F92F96E9BB27939579
:1015A000F695879577956795B795F111F8CFFAF489
:1015B000BB0F11F460FF1BC06F5F7F4F8F4F9F4FBA
:1015C00016C0882311F096E911C0772321F09EE818
:1015D000872F762F05C0662371F096E8862F70E07E
:1015E00060E02AF09A95660F771F881FDAF7880F58
:1015F0009695879597F90895990F0008550FAA0BAE
:10160000E0E8FEEF16161706E807F907C0F0121615
:101610001306E407F50798F0621B730B840B950B18
:1016200039F40A2661F0232B242B252B21F408956D
:101630000A2609F4A140A6958FEF811D811D08950A
:1016400097F99F6780E870E060E008959FEF80EC75
:10165000089500240A941616170618060906089518
:1016600000240A9412161306140605060895092E7E
:101670000394000C11F4882352F0BB0F40F4BF2BED
:1016800011F460FF04C06F5F7F4F8F4F9F4F08952D
:1016900057FD9058440F551F59F05F3F71F0479523
:1016A000880F97FB991F61F09F3F79F08795089508
:1016B000121613061406551FF2CF4695F1DF08C027
:1016C000161617061806991FF1CF86957105610544
:1016D00008940895E894BB2766277727CB0197F9EC
:1016E00008950E94FC0A08F48FEF08950E94890B68
:1016F0000C94370B0E94290B38F00E94300B20F01D
:10170000952311F00C94200B0C94260B11240C94AF
:101710006B0B0E94480B70F3959FC1F3950F50E03F
:10172000551F629FF001729FBB27F00DB11D639F93
:10173000AA27F00DB11DAA1F649F6627B00DA11D39
:10174000661F829F2227B00DA11D621F739FB00DDF
:10175000A11D621F839FA00D611D221F749F33274F
:10176000A00D611D231F849F600D211D822F762FE8
:101770006A2F11249F5750409AF0F1F088234AF0C5
:10178000EE0FFF1FBB1F661F771F881F9150504031
:10179000A9F79E3F510580F00C94200B0C946B0B25
:1017A0005F3FE4F3983ED4F3869577956795B795B8
:1017B000F795E7959F5FC1F7FE2B880F911D9695D2
:1017C000879597F908950E94FC0A880B990B089554
:1017D000991B79E004C0991F961708F0961B881F83
:1017E0007A95C9F780950895EE0FFF1F0590F49143
:1017F000E02D0994F894FFCF00000000ED0487006D
:101800009C019B016E616E00696E66006F766600DA
:101810004865617679205261696E20212100546506
:101820006D703A200043004D6F64657261746520ED
:101830005261696E202121004C69676874205261F1
:10184000696E202121005765617468657220697393
:0818500020436C656172000089
:107800000C94343C0C94513C0C94513C0C94513CE1
:107810000C94513C0C94513C0C94513C0C94513CB4
:107820000C94513C0C94513C0C94513C0C94513CA4
:107830000C94513C0C94513C0C94513C0C94513C94
:107840000C94513C0C94513C0C94513C0C94513C84
:107850000C94513C0C94513C0C94513C0C94513C74
:107860000C94513C0C94513C11241FBECFEFD8E036
:10787000DEBFCDBF11E0A0E0B1E0ECE9FFE702C060
:1078800005900D92A230B107D9F712E0A2E0B1E065
:1078900001C01D92AD30B107E1F70E942D3D0C945F
:1078A000CC3F0C94003C982F959595959595959582
:1078B000905D8F708A307CF0282F295A8091C0000B
:1078C00085FFFCCF9093C6008091C00085FFFCCF60
:1078D0002093C6000895282F205DF0CF982F809127
:1078E000C00085FFFCCF9093C6000895EF92FF92F1
:1078F0000F931F93EE24FF2487018091C00087FD22
:1079000017C00894E11CF11C011D111D81E4E8164B
:1079100082E4F8068FE0080780E0180770F3E09132
:107920000401F091050109958091C00087FFE9CF1E
:107930008091C6001F910F91FF90EF9008950E94D3
:10794000763C982F8091C00085FFFCCF9093C600B5
:1079500091362CF490330CF09053892F089597555D
:10796000892F08951F930E949F3C182F0E949F3CCF
:107970001295107F810F1F9108951F93182F882350
:1079800021F00E94763C1150E1F71F9108951F935A
:10799000182F0E94763C803249F0809103018F5F5E
:1079A000809303018530C1F01F9108958091C0003C
:1079B00085FFFCCF84E18093C6008091C00085FFE5
:1079C000FCCF1093C6008091C00085FFFCCF80E102
:1079D0008093C6001F910895E0910401F091050184
:1079E00009951F9108950E94763C803241F0809164
:1079F00003018F5F80930301853081F008958091AA
:107A0000C00085FFFCCF84E18093C6008091C00058
:107A100085FFFCCF80E18093C6000895E0910401CA
:107A2000F09105010995089540E951E08823A1F0FE
:107A30002D9A28EE33E0FA013197F1F721503040CA
:107A4000D1F72D9828EE33E0FA013197F1F7215064
:107A50003040D1F7815061F708953F924F925F9285
:107A60006F927F928F929F92AF92BF92CF92DF924E
:107A7000EF92FF920F931F93CF93DF93000080E16B
:107A80008093C4001092C50088E18093C10086E015
:107A90008093C2005098589A259A81E00E94143D24
:107AA00024E1F22E9EE1E92E85E9D82E0FE0C02ECA
:107AB00010E1B12EAA24A394B1E49B2EA6E58A2E50
:107AC000F2E57F2EE0E26E2E79E4572E63E5462E36
:107AD00050E5352E0E94763C8033B1F18133B9F107
:107AE000803409F46FC0813409F476C0823409F41B
:107AF00085C0853409F488C0803531F1823521F1A3
:107B0000813511F1853509F485C0863509F48DC0BC
:107B1000843609F496C0843709F403C1853709F423
:107B200072C1863709F466C0809103018F5F80932C
:107B30000301853079F6E0910401F0910501099582
:107B40000E94763C803351F60E94F33CC3CF0E94E2
:107B5000763C803249F78091C00085FFFCCFF092DF
:107B6000C6008091C00085FFFCCF9092C600809136
:107B7000C00085FFFCCF8092C6008091C00085FFC9
:107B8000FCCF7092C6008091C00085FFFCCF609250
:107B9000C6008091C00085FFFCCF5092C600809146
:107BA000C00085FFFCCF4092C6008091C00085FFD9
:107BB000FCCF3092C6008091C00085FFFCCFB09210
:107BC000C60088CF0E94763C863808F4BDCF0E945C
:107BD000763C0E94F33C7ECF0E94763C803809F4CC
:107BE0009CC0813809F40BC1823809F43CC1883942
:107BF00009F48FC080E00E94C73C6CCF84E10E94F2
:107C0000BD3C0E94F33C66CF85E00E94BD3C0E94D3
:107C1000F33C60CF0E94763C809306010E94763C44
:107C2000809307010E94F33C55CF0E94763C80333D
:107C300009F41DC183E00E94BD3C80E00E94C73C66
:107C400049CF0E94763C809309020E94763C809343
:107C5000080280910C028E7F80930C020E94763C79
:107C6000853409F415C18091080290910902892B8D
:107C700089F000E010E00E94763CF801E85FFE4FDA
:107C800080830F5F1F4F80910802909109020817AF
:107C9000190788F30E94763C803209F045CF809125
:107CA0000C0280FF01C16091060170910701660F0F
:107CB000771F7093070160930601A0910802B091AD
:107CC00009021097C9F0E8E0F1E09B01AD014E0F09
:107CD0005F1FF999FECF32BD21BD819180BDFA9A17
:107CE000F99A2F5F3F4FE417F50799F76A0F7B1F4B
:107CF00070930701609306018091C00085FFFCCF5F
:107D0000F092C6008091C00085FFFCCFB092C60003
:107D1000E1CE83E00E94C73CDDCE82E00E94C73CFA
:107D2000D9CE0E94763C809309020E94763C8093D3
:107D300008028091060190910701880F991F909386
:107D40000701809306010E94763C853409F4A6C0A1
:107D500080910C028E7F80930C020E94763C8032D0
:107D600009F0B8CE8091C00085FFFCCFF092C6002C
:107D7000609108027091090261157105B9F140E046
:107D800050E080910C02A82FA170B82FB27011C0E2
:107D9000BB2309F45CC0E0910601F0910701319624
:107DA000F0930701E09306014F5F5F4F46175707B7
:107DB000E8F4AA2369F3F999FECF209106013091E6
:107DC000070132BD21BDF89A90B58091C00085FFB2
:107DD000FCCF9093C6002F5F3F4F30930701209355
:107DE00006014F5F5F4F4617570718F38091C00099
:107DF00085FDE5CE8091C00085FFF8CFE0CE81E023
:107E00000E94C73C67CE0E94763C803209F08CCE3F
:107E10008091C00085FFFCCFF092C6008091C00029
:107E200085FFFCCFE092C6008091C00085FFFCCFAB
:107E3000D092C6008091C00085FFFCCFC092C600E2
:107E40008091C00085FFFCCFB092C60043CEE09188
:107E50000601F091070194918091C00085FFFCCF4D
:107E60009093C6009CCF80E10E94C73C33CE0E9415
:107E7000763C0E94763C182F0E94763C112309F430
:107E800083C0113009F484C08FE00E94C73C22CE29
:107E900080910C02816080930C02E5CE80910C02EF
:107EA000816080930C0259CF809107018823880F4D
:107EB000880B8A2180930B02809106019091070123
:107EC000880F991F90930701809306018091080203
:107ED00080FF09C080910802909109020196909359
:107EE000090280930802F894F999FECF1127E091D6
:107EF0000601F0910701C8E0D1E08091080290915D
:107F00000902103091F40091570001700130D9F34B
:107F100003E000935700E89500915700017001308D
:107F2000D9F301E100935700E89509901990009169
:107F3000570001700130D9F301E000935700E89534
:107F40001395103498F011270091570001700130FB
:107F5000D9F305E000935700E895009157000170B0
:107F60000130D9F301E100935700E895329602976A
:107F700009F0C7CF103011F00296E5CF112480919F
:107F8000C00085FFB9CEBCCE8EE10E94C73CA2CD19
:0E7F900085E90E94C73C9ECDF894FFCF80008B
:00000001FF
